:1000000007C1000036C1000034C1000032C1000049
:1000100030C100002EC100002CC100002AC1000028
:1000200028C1000026C1000024C1000022C1000038
:1000300020C100001EC100001CC100001AC1000048
:1000400018C1000016C1000014C1000012C1000058
:1000500010C100000EC100000CC100000C948512FC
:1000600008C1000006C1000004C1000002C1000078
:1000700000C10000FEC00000FCC00000FAC000008B
:10008000F8C00000F6C00000F4C00000F2C000009C
:100090000C94BA100C949110ECC000000C948B0ED0
:1000A000E8C00000E6C00000E4C00000E2C00000BC
:1000B000E0C00000DEC00000DCC00000DAC00000CC
:1000C000D8C00000D6C00000D4C00000D2C00000DC
:1000D000D0C00000CEC00000CCC00000CAC00000EC
:1000E000C8C00000BB11BE11AD11B111B511F511A1
:1000F000C211C611CC11D011D411DA11DE11E211E6
:10010000F511E811EC11F011000021002400270086
:100110002A002D0030003300010100000401070116
:100120000A0100002200250028002B002E003100CB
:10013000340002010000050108010B010505050559
:10014000070508080808020202020A0A080804044F
:10015000040401010101010101010303030303037D
:100160000303040707070C0C0C0C0C0C0C0C02020C
:10017000020206060606060606060B0B0B0B0B0B09
:100180000B0B010210202008081020401020408096
:10019000020102010804020101020408102040804B
:1001A00080402010080402018004020180402010D9
:1001B0000804020108040201010204081020408022
:1001C000010204081020408000000A0B02090C0DF7
:1001D0000E080703040100000000000000000000FA
:1001E000000000000000000000000000000000000F
:1001F00000000000121110000000000000000000CC
:100200000000000000000000000000000000BF151A
:1002100011241FBECFEFD1E2DEBFCDBF00E00CBF87
:1002200014E0A0E0B2E0EEEDF4E300E00BBF02C0AA
:1002300007900D92AC3BB107D9F72CE0ACEBB4E0E2
:1002400001C01D92A732B207E1F711E0C8E0D1E08A
:1002500000E006C021970109802FFE010E942A18A4
:10026000C730D10780E00807A9F70E94CF120C948D
:100270006D1AC6CEFC01918D228D892F90E0805C95
:100280009F4F821B91098F739927089580E090E01A
:10029000892B41F080E090E0892B21F00E94000042
:1002A000811121C080E090E0892B21F00E941A107A
:1002B00081111CC080E090E0892B41F080E090E04B
:1002C000892B21F00E940000811113C080E090E092
:1002D000892BA1F080E090E0892B81F00E94000042
:1002E00081110AC008950E940000DCCF0E94000026
:1002F000E1CF0E940000EACF0C940000089585ED44
:100300008093BC008091BC0084FDFCCF10925F06FE
:1003100008954091DC04262F30E0240F311D213256
:100320003105DCF420915F062430C9F4FC0180E043
:1003300090E0861758F43091DC042191DC01A4543C
:10034000BB4FA30FB11D2C930196F3CF8091DC041A
:10035000680F6093DC0480E0089581E0089582E0F6
:100360000895089508950895E09104058091030586
:10037000E81730F4F0E0EB5FFA4F808190E00895E9
:100380008FEF9FEF089590910405809103059817D2
:1003900050F4E92FF0E0EB5FFA4F208130E09F5FEF
:1003A0009093040502C02FEF3FEFC901089580919B
:1003B000030590E020910405821B91090895CF92D6
:1003C000DF92EF92FF920F931F93CF93DF937C0105
:1003D000CB018A0120916006222389F0EB016B0199
:1003E000C40ED51ECC15DD0561F06991D701ED91E4
:1003F000FC910190F081E02DC7011995F3CF642F96
:1004000088DFC801DF91CF911F910F91FF90EF908E
:10041000DF90CF900895CF93DF931F92CDB7DEB7D3
:100420006983209160062223D1F020918306203237
:1004300040F021E030E0FC013383228380E090E053
:1004400014C080916106E82FF0E0EE59F94F9981D0
:1004500090838F5F809361068093830604C061E080
:10046000CE01019656DF81E090E00F90DF91CF91B1
:100470000895089580E090E008958A579B4FFC010D
:100480008081089588EC92E0089589EE92E00895C5
:10049000FC01838594850895DB012C91FC01208764
:1004A0000184F285E02D06961994AF92BF92CF9207
:1004B000DF92EF92FF920F931F93CF93DF9300D0C1
:1004C0001F921F92CDB7DEB7643671053CF0FC0178
:1004D000EA57FB4F2081222309F477C0DA017B0120
:1004E0008C01BC01615E7D4FED91FC910190F0812A
:1004F000E02DCA011995680128EEC21A2DEFD20A23
:100500002FEFD6012C93F801E75EFD4F2EEF2083ED
:1005100031968083319690833196292F280F20952C
:1005200020833196E0821696FC9245E050E020E070
:1005300030E0DC011696A417B50734F06191260F60
:10054000311D4F5F5F4FF7CF7C01B8E0EB0EF11C20
:10055000800F911FFC01E15EFD4F20952083E1E0BB
:10056000EE16E2E0FE06BCF45601C5018C199D09A9
:100570008E159F056CF5D80112968D919C9113975D
:10058000F50161915F01DC01ED91FC910190F08139
:10059000E02D1995EACF82E392E09A83898383E084
:1005A0008B8387EF92E09D838C83D801ED91FC9142
:1005B0000190F081E02DAE014F5F5F4F67E070E08A
:1005C000C80119958FEF9FEF04C080E090E001C053
:1005D000C7010F900F900F900F900F90DF91CF9168
:1005E0001F910F91FF90EF90DF90CF90BF90AF9051
:1005F0000895CF92DF92EF92FF92FC011082118258
:1006000012821382DB0120E030E04D9150E0022E97
:1006100002C0440F551F0A94E2F7052E000C660B2A
:10062000770BC080D180E280F3804C295D296E2950
:100630007F294083518362837383285F3F4F203239
:10064000310519F7FF90EF90DF90CF900895CF928A
:10065000DF92EF92FF9220E030E06A017B01022EF0
:1006600004C0F694E794D794C7940A94D2F7FC0197
:10067000C192CF01285F3F4F2032310571F7FF90C3
:10068000EF90DF90CF900895FB012081FC01228341
:1006900081E090E00895FC018281FB01808381E08C
:1006A00090E0089580E393E0089581E593E0089554
:1006B0008CE693E008958DE893E008958F929F92E1
:1006C000AF92BF92CF92DF92EF92FF920F931F9360
:1006D000CF93DF93EC018B018A81FB0180838B81B7
:1006E00081838C8182838D818383C12CD12C812C49
:1006F000912C540184E0E82EF12C4A815B816C81BD
:100700007D81D801AE0DBF1D84169506A606B706DD
:10071000C0F48A899B898C0D9D1DFC01208131814B
:10072000F90120813181BD01F9011995E80EF91E09
:10073000FFEF8F1A9F0AAF0ABF0A8CE0C80ED11CC8
:10074000DCCF8C898C938D8911968C9311978E892F
:1007500012968C9312978F8913968C93C7010496E7
:10076000DF91CF911F910F91FF90EF90DF90CF908D
:10077000BF90AF909F908F900895CF92DF92FF929D
:100780000F931F93CF93DF93EC018B01029696DFBB
:100790006801C80ED91E2A8DF60120832B8D218376
:1007A0002C8D22832D8D23830496D60140E050E0CA
:1007B000BA010A8D1B8D2C8D3D8D401751076207A4
:1007C0007307F8F49D012C193D090AA11BA1200F04
:1007D000311FF901F0800181128123811496FC926E
:1007E000149715960C93159716961C9316971796B3
:1007F0002C93179704964F5F5F4F6F4F7F4F149660
:10080000D8CFDF91CF911F910F91FF90DF90CF90C4
:10081000089587EA93E0089588EC93E008954F9255
:100820005F926F927F928F929F92AF92BF92EF9260
:10083000FF920F931F93CF93DF9300D01F92CDB7FA
:10084000DEB78C017B01CE010196D3DE89819A81CE
:10085000AB81BC814C015D0124E0820E911CA11C86
:10086000B11CA7014D5F5F4FFA0124E030E0290180
:10087000612C712C481459046A047B0428F46181AA
:1008800061932F5F3F4FF3CFE80EF91EF7011382FC
:10089000F80153834283F701448150E060E070E047
:1008A000F8014483558366837783F7012581522BB2
:1008B000F8014483558366837783F7012681622B91
:1008C000F8014483558366837783F7012781722B70
:1008D000F8014483558366837783F701408550E0B0
:1008E00060E070E0F8014087518762877387F70105
:1008F0002185522BF8014087518762877387F70162
:100900002285622BF8014087518762877387F70140
:100910002385722BF80140875187628773870C9675
:100920000F900F900F900F90DF91CF911F910F912B
:10093000FF90EF90BF90AF909F908F907F906F90BF
:100940005F904F90089585EE93E0089586E092E0E1
:10095000089586E094E0089587E294E008954F9228
:100960005F926F927F928F929F92AF92BF92EF921F
:10097000FF920F931F93CF93DF9300D01F92CDB7B9
:10098000DEB77C018B01FB018191BF01F7018283FE
:10099000CE0101962EDE89819A81AB81BC814C010A
:1009A0005D01F5E08F0E911CA11CB11CA8014C5FEC
:1009B0005F4FFA0125E030E02901612C712C4814C9
:1009C00059046A047B0428F4618161932F5F3F4FCF
:1009D000F3CFF801E80FF91F1482F7015483438322
:1009E00005960F900F900F900F90DF91CF911F9170
:1009F0000F91FF90EF90BF90AF909F908F907F905E
:100A00006F905F904F9008958AE394E008958BE58E
:100A100094E008954F925F926F927F928F929F928F
:100A2000AF92BF92CF92DF92EF92FF920F931F93FC
:100A3000CF93DF93CDB7DEB72C970FB6F894DEBF18
:100A40000FBECDBF7C018B01DB018C9190E0F701E3
:100A50009383828311962C91922B938382836E5F72
:100A60007F4FCE010196C5DD89809A80AB80BC8026
:100A700024013501F6E04F0E511C611C711C9801D8
:100A80002B5F3F4FF90186E090E0AC0160E070E041
:100A9000441555056605770520F44181419301967B
:100AA000F4CFF801E80DF91D1582D70115963C9396
:100AB0002E931497B4016A5F7F4F600F711FCE01B0
:100AC000059697DDBAE08B0E911C4D805E806F809D
:100AD0007884A401092C000C660B770B440D551D7E
:100AE000661D771DD801A80DB91DCD01801B910B86
:100AF0005C01C12CD12CA416B506C606D70628F475
:100B00008D91FD0132978083F0CF5401A40CB51C68
:100B1000B8016A0D7B1DFB0131971082C40101975A
:100B2000800F911FF70197838683CE01099661DDBF
:100B300095012C5F3F4F89859A85AB85BC8529013E
:100B4000032E000C66087708480E591E6A1E7B1E8D
:100B5000F5013396E00FF11FA9014A01A12CB12C38
:100B600084149504A604B70428F4618161934F5F4F
:100B70005F4FF3CF820F931FF801E80FF91FDF01DA
:100B800011971C9221503109020F131FD70119969A
:100B90001C930E9318972181428150E060E070E031
:100BA000BA0155274427522B2081422B2381722BD7
:100BB000F701428753876487758704962C960FB692
:100BC000F894DEBF0FBECDBFDF91CF911F910F9183
:100BD000FF90EF90DF90CF90BF90AF909F908F905D
:100BE0007F906F905F904F90089584E794E0089510
:100BF00085E994E00895FC01DB014C9150E060E050
:100C000070E0428353836483758311968C911197AE
:100C1000582B428353836483758312968C91129769
:100C2000682B428353836483758313968C91139747
:100C3000782B428353836483758314964C91149765
:100C400050E060E070E046835783608771871596B7
:100C50008C911597582B468357836087718716961A
:100C60008C911697682B46835783608771871796F8
:100C70008C91782B468357836087718788E090E05A
:100C80000895DC01FB0112968C91129780831396D4
:100C90008C911397818314968C9114978283159667
:100CA0008C911597838316968C911697848317964B
:100CB0008C911797858318968C911897868319962F
:100CC0008C91878388E090E00895FC01628182E442
:100CD0000C948D114F925F926F927F92AF92BF9260
:100CE000CF92DF92EF92FF920F931F93CF93DF93F8
:100CF000EC015B01FB01C080D180E280F3808A813E
:100D00009B81AC81BD818C159D05AE05BF0560F44E
:100D10008CE08C9DB0018D9D700D11248A899B897A
:100D20000E9480199B8B8A8BCA82DB82EC82FD82B7
:100D3000E12CF12C412C512C320104E010E06E0129
:100D4000F6E0CF0ED11C8A819B81AC81BD81F5017B
:100D5000E00FF11F481659066A067B06C0F4BF0172
:100D6000C6015DDD080F191FAA89BB89AE0DBF1D25
:100D70008CE0F60101900D928A95E1F78FEF481A09
:100D8000580A680A780AECE0EE0EF11CDCCF80818C
:100D900090E0A0E0B0E08C8B9D8BAE8BBF8B21816F
:100DA000922B8C8B9D8BAE8BBF8B2281A22B8C8B3D
:100DB0009D8BAE8BBF8B2381B22B8C8B9D8BAE8B8F
:100DC000BF8BC8010496DF91CF911F910F91FF90C7
:100DD000EF90DF90CF90BF90AF907F906F905F903B
:100DE0004F900895AF92BF92CF92DF92EF92FF9211
:100DF0000F931F93CF93DF93EC018B0102966ADF71
:100E0000080F191FF80120813181C280D12CE12CFB
:100E1000F12C7601DD24CC24D32AC22A2381F22AA4
:100E20005C01F4E0AF0EB11C8A8D9B8DAC8DBD8D45
:100E30008C159D05AE05BF0558F4B601660F771FEA
:100E4000660F771F8AA19BA10E9480199BA38AA38A
:100E5000CA8EDB8EEC8EFD8E9801C12CD12C7601D2
:100E6000AE01425E5F4F8A8D9B8DAC8DBD8DC816E5
:100E7000D906EA06FB0650F5F9016581868190E006
:100E8000A0E0B0E0DC0199278827962B6481862BAF
:100E90006781B62B8E8F9F8FA8A3B9A3F4E0AF0E06
:100EA000B11CC901801B910BAAA1BBA1A80FB91F3E
:100EB00084E0FA0101900D928A95E1F78FEFC81A4C
:100EC000D80AE80AF80A2C5F3F4FCDCFC501DF9161
:100ED000CF911F910F91FF90EF90DF90CF90BF9037
:100EE000AF9008952F923F924F925F926F927F92B0
:100EF0008F929F92AF92BF92CF92DF92EF92FF922A
:100F00000F931F93CF93DF93CDB7DEB760970FB6E4
:100F1000F894DEBF0FBECDBF8C016B01DB018D905D
:100F20009D90AD90BC90FC0182819381A481B5819C
:100F300088159905AA05BB0570F4B401660F771FE3
:100F4000660F771F828593850E948019D8011B96B2
:100F50009C938E931A97F80182829382A482B58221
:100F60009601812C912C540144E050E0B8016A5F55
:100F70007F4F2C5F3F4FF80182819381A481B5811F
:100F8000FA0134961F0188169906AA06BB0650F589
:100F9000D9011196FC90119712968C9190E0A0E0E7
:100FA000B0E0DC01992788279F29F901F0808F297B
:100FB000F380BF29F80186839783A087B187DA0180
:100FC000A101149782859385A80FB91F84E0FB01C6
:100FD00001900D928A95E1F7FFEF8F1A9F0AAF0AF1
:100FE000BF0AC7CF4601840E951ED4018C9111967D
:100FF0009C91119712964C901297512C612C712C48
:10100000320155244424592A482A13968C91782A6F
:101010005F01F80184859585A685B78584159505BA
:10102000A605B70570F4B201660F771F660F771F2C
:10103000848995890E948019D80155969C938E9336
:101040005497F8014486558666867786C401412CFC
:10105000512C32019801205F3F4FD8011C964D91D1
:101060005D916D917C911F97F5013496441655065C
:101070006606770698F5DC011596FC90159716968E
:101080004C91169750E060E070E0BA015527442774
:101090005F291496FC9014974F291796FC907F298E
:1010A000D80150964D935D936D937C9353975F0158
:1010B000AC014819590954960D90BC91A02DA40F6C
:1010C000B51F44E0F90101900D924A95E1F7BFEF99
:1010D0004B1A5B0A6B0A7B0A0496BFCFD601AA0D96
:1010E000BB1D8C9111969C91119712968C90129722
:1010F000912CA12CB12C540199248824992A882A56
:1011000013968C91B82A7F01F80186899789A08D62
:10111000B18D88159905AA05BB0560F4B401660F69
:10112000771F848D958D0E948019D8015D969C93C0
:101130008E935C97F801868A978AA08EB18E212CB7
:10114000312C812C912C54019801265E3F4F3A8717
:101150002987F80186899789A08DB18D881699060F
:10116000AA06BB0608F05EC0B6016E0D7F1DCE015B
:1011700001963FDA97012C5F3F4F388B2F874981CB
:101180005A816B817C81C901330FAA0BBB0B2C01E7
:101190003D01440E551E661E771E4B865C866D868D
:1011A0007E8623E0E20EF11CF601EE0DFF1D2F8579
:1011B0003889C901A0E0B0E04B845C846D847E84F2
:1011C00084159505A605B70528F4A181A1932F5F85
:1011D0003F4FEFCF6F847888460D571DF601E40F1F
:1011E000F51F31971082C30101978C0D9D1DD80109
:1011F0005B969C938E935A977A015C96ED91FC9145
:101200005D97E20DF31DA985BA858D919C9191831F
:101210008083BFEF8B1A9B0AAB0ABB0AE2E02E0E5B
:10122000311C97CFC70160960FB6F894DEBF0FBE92
:10123000CDBFDF91CF911F910F91FF90EF90DF9085
:10124000CF90BF90AF909F908F907F906F905F9066
:101250004F903F902F9008952F923F924F925F9220
:101260006F927F928F929F92AF92BF92CF92DF92B6
:10127000EF92FF920F931F93CF93DF93CDB7DEB71B
:10128000A6970FB6F894DEBF0FBECDBF8C010E94AB
:1012900042124B015C01980125573B4F3E8B2D8B31
:1012A000F90180819181A281B381A5019401281B5C
:1012B000390B4A0B5B0BDA01C901893F9A42A10540
:1012C000B10510F035971082180144E8241A4BEF4D
:1012D000340AD1018D919C91892B79F0F801E15765
:1012E000FB4F80819181A281B38188159905AA0560
:1012F000BB0518F4F1011182108298012C573B4F65
:101300003A8B298BA80140585B4F5C8B4B8BC801F3
:101310004896988F8F8BD801AA57BB4FBC8FAB8F45
:10132000F801EC56FB4FFE8FED8F215F3F4F38A346
:101330002F8F42505109588B4F8786599B4F9A8F58
:10134000898F1996BAA3A9A3A50194012C5E3F4FDA
:101350004F4F5F4F2BA33CA34DA35EA3F80184899D
:101360009589A689B789892B8A2B8B2B81F4D80183
:1013700012968D919C911397DC01ED91FC91028462
:10138000F385E02D19959C0197FF14C087C20E9438
:101390004212DC01CB0188199909AA09BB09F8019D
:1013A000C488D588E688F788C816D906EA06FB06F9
:1013B000F0F69AC2A989BA898D919C911197820FF2
:1013C000931F8D939C93F1014081518147305105CA
:1013D000D9F4A98DBA8D8D919C911197AC014F5F75
:1013E0005F4F4D935C93F801E80FF91F208FEF8555
:1013F000F88980819181019791838083892B09F0FD
:10140000ADCF88E090E032C04115510539F52F3F4E
:10141000310589F481E090E0F101918380832BA173
:101420003CA14DA15EA1A9A1BAA12D933D934D93DD
:101430005C93139793CF0E944212DC01CB01881971
:101440009909AA09BB0989389341A105B10508F496
:1014500085CFF801EA57FB4F108246C24130510553
:10146000A9F42E3F310531F482E090E0D1018D9353
:101470009C9374CFF10111821082AB8DBC8D8C9145
:1014800081116CCFC8010E944E1268CF42305105C5
:1014900091F4EF85F88931832083A98DBA8D1D924F
:1014A0001C9283E090E0F10191838083A989BA893D
:1014B0002D933C9353CF4330510569F4322F2227AB
:1014C000EF85F88980819181280F391F318320832E
:1014D00084E090E0CBCF4430510581F460E071E0CE
:1014E0000E94F5178F3F910531F485E090E0F101FE
:1014F0009183808333CF1182108230CF45305105E4
:1015000071F4EB89FC893183208386E090E0D1017E
:101510008D939C93E989FA89318320831FCF4630CC
:101520005105A9F4322F2227AB89BC898D919C915A
:101530001197280F391F2D933C9387E090E0F1011C
:1015400091838083AF85B8898D919C9157CF483026
:10155000510509F003CFF1011182108260E071E0C2
:101560000E94F5178F3F910509F0F8CEAB89BC8931
:101570008D919C91009709F0C5C0C8018FD786E274
:1015800092E09A8389831C821B828FE293E09E8380
:101590008D8398878F839A8789871B861C861D86F3
:1015A0001E866801B8EECB1ABBEFDB0A7801E6EBCA
:1015B000EE1AEBEFFE0A412C22E0522E612C712C28
:1015C000D601ED91FC913097A9F1848195819C839E
:1015D0008B83808191819E838D8382819381DC01C5
:1015E000ED91FC910480F581E02D199598878F830A
:1015F000D601ED91FC9182819381DC01ED91FC910A
:101600000680F781E02D19959A8789874B865C863D
:101610006D867E86D601ED91FC9160857185D8013D
:10162000ED91FC910190F081E02DAE014F5F5F4F95
:10163000C8011995B2E0CB0ED11CEC14FD0409F0E1
:10164000BFCF412C92E0592E612C712CF701A08163
:10165000B1811097E1F112968D919C9113979C8323
:101660008B8314968D919C9115979E838D83ED911C
:10167000FC9111970480F581E02DCD011995988793
:101680008F83D7018D919C91DC01ED91FC910680B7
:10169000F781E02D19959A8789874B865C866D8640
:1016A0007E86D801ED91FC91C080D180F7018081C8
:1016B0009181DC01ED91FC910280F381E02D19957F
:1016C000AE014F5F5F4FBC01C801F6011995F2E012
:1016D000EF0EF11CE214F30409F0B8CFF801EA5759
:1016E000FB4F81E08083319680829182A282B38217
:1016F000AD89BE898D929D92AD92BC9213978FEF6A
:101700009FEFF7C08A30910509F09EC08EE392E00A
:101710009A8389831B821C821D821E821F821886E7
:1017200019861A86AFD6F801C084D184E284F38486
:101730009B01AC012C193D094E095F0969017A0131
:101740006F89788DCE01019656DAC701B60128EE71
:1017500033E040E050E00E940818CB80DC80ED8050
:10176000FE80C20ED31EE41EF51ECB82DC82ED820B
:10177000FE829B01AC0160E472E48FE090E00E9485
:10178000E617CF80D884E984FA84DC01CB018C0D84
:101790009D1DAE1DBF1D8F839887A987BA8772D6FE
:1017A000CF80D884E984FA8436E3D31A35E6E30A95
:1017B00034ECF30A28EE33E040E050E00E940818D1
:1017C00029013A019B01AC0160E472E48FE090E0F2
:1017D0000E94E617A7019601261B370B480B590BF1
:1017E000CA01B901CB80DC80ED80FE8031E0C31AF4
:1017F000D108E108F108A701960124193509460925
:10180000570929013A0120E03AEC4AE95BE30E94DA
:10181000081873016201C20ED31EE41EF51ED80122
:101820001C96CD92DD92ED92FC921F97F801608B91
:10183000718B828B938B26D6AD89BE896D937D93F8
:101840008D939C9313978ACD8630910551F46F89BF
:10185000788D8D8D9E8D46DB81E0EF8DF8A18083A4
:101860007DCD8B30910521F4AB8DBC8D1C9276CD56
:10187000FC01EF53FE4FEE0FFF1FE00FF11F8081C1
:101880009181009709F46ACDDC01ED91FC91019002
:10189000F081E02D6F89788D199560CDF801EA57B8
:1018A000FB4F8081882319F17801B9E7EB1ABBEF70
:1018B000FB0AF70180819181A281B381A501940186
:1018C000281B390B4A0B5B0BDA01C901853C994097
:1018D000A105B10560F0C801E1D5D7018D929D92B7
:1018E000AD92BC92139703C08EEF9FEF02C080E0D1
:1018F00090E0A6960FB6F894DEBF0FBECDBFDF9185
:10190000CF911F910F91FF90EF90DF90CF90BF90FC
:10191000AF909F908F907F906F905F904F903F908F
:101920002F900895EF92FF920F931F93CF93DF9321
:10193000EC018B01AA81BB81FD0101900020E9F738
:1019400031977F01EA1AFB0AA70160E070E0C80145
:101950000E9427036A817B81A701C80104960E9427
:10196000641AF801EE0DFF1D8C8184838D818583BF
:101970008E8186838F81878388858087898581870B
:101980008A8582878B858387C7010C96DF91CF91EB
:101990001F910F91FF90EF9008954F925F926F9279
:1019A0007F92AF92BF92CF92DF92EF92FF920F930E
:1019B0001F93CF93DF93EC018B018A81FB0180831E
:1019C0008B8181838C8182838D818383DB0140E0E5
:1019D00050E0BA01E4E0F0E01496CA80DB80EC80CD
:1019E000FD80CF0104964C155D056E057F05C8F49A
:1019F0002A853B85E20FF31F3497D080F180328136
:101A00002381DC921196FC92119712963C931297C7
:101A100013962C931397FC014F5F5F4F6F4F7F4FCF
:101A2000DBCF5F01A00EB11E2C85F50120832D8533
:101A300021832E8522832F852383D50140E050E02A
:101A4000BA01CC84DD84EE84FF849C012C5F3F4F7F
:101A50004C155D056E057F05F8F4CD018A199B09CB
:101A6000EC88FD888E0D9F1DFC01D080E180F28006
:101A700083811496DC9214971596EC92159716961E
:101A8000FC92169717968C931797C9014F5F5F4F7B
:101A90006F4F7F4F1496D5CFF801E80FF91F8E894D
:101AA00080838F898183888D8283898D8383790167
:101AB000A12CB12C412C512C32018E899F89A88DEB
:101AC000B98D481659066A067B0680F5EC8DFD8DAA
:101AD000EA0DFB1DA081B181FD0101900020E9F715
:101AE00031976F01CA1ADB0AA60160E070E0C801F5
:101AF0008E0D9F1D0E942703F4E0EF0EF11CEC8D6C
:101B0000FD8DEA0DFB1D60817181A601C8018E0D5E
:101B10009F1D0E94641AEC0CFD1C8FEF481A580A96
:101B2000680A780AE2E0AE0EB11CC7CFC701DF91A8
:101B3000CF911F910F91FF90EF90DF90CF90BF90CA
:101B4000AF907F906F905F904F900895EF92FF92CB
:101B50000F931F93CF93DF938C017B01DC011296CF
:101B60002C911297FB012193CF011396ED91FC91DB
:101B70001497EF0109900020E9F72197CE1BDF0BA6
:101B8000AE0160E070E00E942703D80113966D91CA
:101B90007C911497AE01C70105960E94641ACE018C
:101BA0000596DF91CF911F910F91FF90EF900895CF
:101BB000CF92DF92EF92FF920F931F93CF93DF9319
:101BC0007C018B01DC0112968C911297FB018083C2
:101BD00013968C91139781831496ED91FC91159730
:101BE000EF0109900020E9F72197CE1BDF0BAE0132
:101BF00060E070E0C80102960E942703D7011496A6
:101C00006D917C911597AE01C80106960E94641AE9
:101C1000CE010696F701A681B781FD010190002053
:101C2000E9F731976F01CA1ADB0AA60160E070E09C
:101C3000800F911F0E9427032A96D70116966D9157
:101C40007C911797A601C8018C0F9D1F0E94641AF2
:101C5000CC0DDD1DD7011896ED91FC911997DF0190
:101C60000D900020E9F711976D01CE1ADF0AA60149
:101C700060E070E0C8018C0F9D1F0E94270324962E
:101C8000F70160857185A601C8018C0F9D1F0E9418
:101C9000641AC6018C0F9D1FD7011A966C911A9772
:101CA0001B964C911B971C963C911C971D962C9152
:101CB000F801E80FF91F6083418332832383049680
:101CC000DF91CF911F910F91FF90EF90DF90CF9018
:101CD0000895FC01848DDF01A80FB11DA35ABF4FE9
:101CE0002C91848D90E001968F739927848FA6891B
:101CF000B7892C93A089B1898C91837080648C936F
:101D0000938D848D981306C00288F389E02D80811D
:101D10008F7D808308951F920F920FB60F9211242A
:101D20000BB60F922F933F934F935F936F937F93D5
:101D30008F939F93AF93BF93EF93FF938091B900DD
:101D4000887F803609F49CC068F5883209F45BC04E
:101D500090F4803109F454C038F4882309F4F6C0B3
:101D6000883009F44DC0F6C0883109F44CC0803287
:101D700009F45DC0EFC0803409F468C048F48033D2
:101D800009F455C0883309F0E5C080935D06D8C0DA
:101D9000803509F44FC0883509F45DC0883409F0F6
:101DA000D9C0D6C0883909F4C7C0A8F4883709F467
:101DB00067C038F4883609F463C0803709F460C01E
:101DC000C9C0883809F4B8C0803909F45FC08038C8
:101DD00009F0C0C05BC0803B09F486C038F4803A8B
:101DE00009F466C0883A09F47FC0B4C0803C09F4A5
:101DF000A7C0883C09F4A4C0883B09F48AC0AAC0E3
:101E000080913A0610C090915C0680915B0698170D
:101E100070F5E0915C0681E08E0F80935C06F0E047
:101E2000E55CF94F80818093BB0085EC86C0809390
:101E30005D068EC0E0915C0681E08E0F80935C06AB
:101E40008091BB00F0E0E55CF94F808390915C06E7
:101E500080915B066EC0E0915C0681E08E0F8093FE
:101E60005C068091BB00F0E0E55CF94F80838091D7
:101E70005E0681116DC081E08093390684EA61C0FD
:101E800083E080935F061092FE04CFCF8091FE0422
:101E9000803208F051C0E091FE0481E08E0F809303
:101EA000FE048091BB00F0E0E252FB4F8083BDCF87
:101EB00085EC8093BC0010925F068091FE04803216
:101EC00030F4E091FE04F0E0E252FB4F10826091AA
:101ED000FE0470E0E091FF04F09100058EED94E0C7
:101EE00019951092FE0436C084E080935F0610922C
:101EF000DD041092DC04E0910105F09102051995D2
:101F00008091DC04811105C081E08093DC04109293
:101F1000BC04E091DD0481E08E0F8093DD04F0E0ED
:101F2000E454FB4F80818093BB009091DD0480914D
:101F3000DC04981708F479CF85E88093BC000AC0C8
:101F400085EC8093BC0010925F0604C010925D0681
:101F50000E947F01FF91EF91BF91AF919F918F916F
:101F60007F916F915F914F913F912F910F900BBE99
:101F70000F900FBE0F901F901895CF92DF92EF92A7
:101F8000FF920F931F93CF93DF936C017A018B0124
:101F9000C0E0D0E0CE15DF0581F0D8016D918D0154
:101FA000D601ED91FC910190F081E02DC6011995CB
:101FB000892B11F02196EECF7E01C701DF91CF91E1
:101FC0001F910F91FF90EF90DF90CF900895FC014B
:101FD000538D448D252F30E0842F90E0821B930B8E
:101FE000541710F0CF96089501970895FC01918D34
:101FF000828D981761F0828DDF01A80FB11D5D966B
:102000008C91928D9F5F9F73928F90E008958FEFD8
:102010009FEF0895FC01918D828D981731F0828D8C
:10202000E80FF11D858D90E008958FEF9FEF0895E3
:102030000E94601A80E996E00E943A0121E0892B13
:1020400009F420E0822F0895EF92FF920F931F93DF
:10205000CF93DF93EC0181E0888F9B8D8C8D98135B
:1020600005C0E889F989808185FD25C0F62E0B8D94
:1020700010E00F5F1F4F0F731127E02E8C8DE812B9
:102080000BC00FB607FCFACFE889F989808185FF7C
:10209000F5CFCE011EDEF2CF8B8DFE01E80FF11DD4
:1020A000E35AFF4FF0829FB7F8940B8FEA89FB89C0
:1020B000808180620AC09FB7F894EE89FF896083AF
:1020C000E889F98980818370806480839FBF81E083
:1020D00090E0DF91CF911F910F91FF90EF900895C5
:1020E000CF93DF93EC01888D8823C1F0EA89FB89C7
:1020F000808185FD05C0A889B9898C9186FD0EC0B7
:102100000FB607FCF5CF808185FFF2CFA889B9898A
:102110008C9185FFEDCFCE01DCDDE8CFDF91CF9153
:1021200008951F920F920FB60F9211240BB60F92C3
:102130002F933F934F935F936F937F938F939F93CF
:10214000AF93BF93EF93FF9380E996E0C2DDFF91D9
:10215000EF91BF91AF919F918F917F916F915F911F
:102160004F913F912F910F900BBE0F900FBE0F908C
:102170001F9018951F920F920FB60F9211240BB655
:102180000F922F938F939F93EF93FF93E091A0066D
:10219000F091A1068081E091A606F091A70682FD4C
:1021A00012C090818091A9068F5F8F732091AA063B
:1021B000821751F0E091A906F0E0E057F94F958FB2
:1021C0008093A90601C08081FF91EF919F918F912B
:1021D0002F910F900BBE0F900FBE0F901F90189570
:1021E0003FB7F89480911F0C9091200CA091210C86
:1021F000B091220C26B5A89B05C02F3F19F001967F
:10220000A11DB11D3FBFBA2FA92F982F8827820F7C
:10221000911DA11DB11DBC01CD0142E0660F771FCC
:10222000881F991F4A95D1F70895282F309183066A
:10223000313208F04AC080915F068111FCCF909145
:10224000820642E040935F0620935E062FEF2093C4
:102250005D0610925C0630935B06E2E6F6E0ABE3C7
:10226000B6E020E0321721F041914D932F5FFACF75
:1022700010923A0620913A06990F922B90933A06C3
:1022800090913906913061F41092390690913A0696
:102290009093BB009091BC0093FDF8CF95EC01C0EA
:1022A00095EE9093BC0090915F069230E1F390918F
:1022B0005D069F3F79F080915D06803241F080910C
:1022C0005D06803331F084E005C081E003C082E028
:1022D00001C083E01092610610928306109260069E
:1022E0000895CF93DF93EB019091290621E020938D
:1022F0006006909382061092610610928306682F02
:1023000084E896E00E940B02688184E896E00E94CF
:102310000B0281E0DF91CF9188CF362F90E0FC0156
:10232000E853FE4F4491FC01EE57FE4F2491FC010F
:10233000E45CFE4F9491992309F46BC0442309F4A3
:1023400054C050E0FA013197E231F10508F04DC078
:102350008827EE58FF4F8F4F7DC6809180008F7782
:1023600007C0809180008F7D03C080918000877FAF
:10237000809380003AC084B58F7702C084B58F7D8A
:1023800084BD33C08091B0008F7703C08091B000CE
:102390008F7D8093B00029C0809190008F7707C017
:1023A000809190008F7D03C080919000877F809303
:1023B00090001BC08091A0008F7707C08091A00083
:1023C0008F7D03C08091A000877F8093A0000DC007
:1023D000809120018F7707C0809120018F7D03C0FD
:1023E00080912001877F80932001E92FF0E0EE0F9C
:1023F000FF1FEE5DFE4FA591B4919FB7F894311188
:1024000004C08C912095282302C0EC912E2B2C9394
:102410009FBF08958F929F92AF92BF92CF92DF920B
:10242000EF92FF926B017C01DBDE4B015C01C1147A
:10243000D104E104F104E9F0D3DEDC01CB01881919
:102440009909AA09BB09883E9340A105B10578F313
:1024500021E0C21AD108E108F10888EE880E83E075
:10246000981EA11CB11CC114D104E104F10421F790
:10247000DECFFF90EF90DF90CF90BF90AF909F9016
:102480008F9008952FB7F89460911B0C70911C0CDD
:1024900080911D0C90911E0C2FBF08950F931F93D8
:1024A000CF93DF93CDB7DEB72A970FB6F894DEBF90
:1024B0000FBECDBF8C018EE392E09A8389831B828D
:1024C0001C821D821E821F82188619861A86D801D8
:1024D000ED91FC910190F081E02DAE014F5F5F4FD7
:1024E0006AE070E0C8011995CDDFF8016087718757
:1024F000828793872A960FB6F894DEBF0FBECDBFB2
:10250000DF91CF911F910F9108951F920F920FB6F7
:102510000F9211242F933F938F939F93AF93BF9369
:1025200080911B0C90911C0CA0911D0CB0911E0C65
:1025300030911A0C23E0230F2D3720F40196A11DB2
:10254000B11D05C026E8230F0296A11DB11D2093E1
:102550001A0C80931B0C90931C0CA0931D0CB09331
:102560001E0C80911F0C9091200CA091210CB09119
:10257000220C0196A11DB11D80931F0C9093200C7D
:10258000A093210CB093220CBF91AF919F918F919A
:102590003F912F910F900FBE0F901F901895CF93E2
:1025A000DF9300D01F92CDB7DEB7789484B58260F8
:1025B00084BD84B5816084BD85B5826085BD85B5E7
:1025C000816085BD80916E00816080936E00109265
:1025D00081008091810082608093810080918100E0
:1025E0008160809381008091800081608093800071
:1025F0008091B10084608093B1008091B0008160CF
:102600008093B000809191008260809391008091CE
:10261000910081608093910080919000816080930F
:1026200090008091A10082608093A1008091A10020
:1026300081608093A1008091A00081608093A000C0
:10264000809121018260809321018091210181602C
:1026500080932101809120018160809320018091ED
:102660007A00846080937A0080917A0082608093FF
:102670007A0080917A00816080937A0080917A005C
:10268000806880937A001092C100E4ECF1E024911C
:10269000EEE7F1E08491882399F090E0880F991F8C
:1026A000FC01E85FFE4FA591B491FC01EE5DFE4F89
:1026B000859194918FB7F894EC91E22BEC938FBFB6
:1026C00060E082E42ADE89E6809329061092040500
:1026D00010920305109261061092830610925F0615
:1026E00081E080935E061092390661E084E115DE98
:1026F00061E085E112DE8091B9008E7F8093B900A0
:102700008091B9008D7F8093B90088E48093B800F0
:1027100085E48093BC0081EB91E090930205809367
:10272000010582EB91E0909300058093FF041092E5
:102730002A061A82BE016E5F7F4F80E0D2DD8FE3F2
:1027400080932B068B83BE016D5F7F4F81E0C9DDD7
:1027500080912D068E7F80932D0681FB002700F946
:1027600010E0000F111F0983BE016F5F7F4F83E0F0
:10277000B8DD80912C068E7F80932C061C82BE01D2
:102780006C5F7F4F82E0ADDD64E670E080E090E05A
:1027900041DE64E670E080E090E03CDE80E091E0C5
:1027A0008ED4909367078093660780E490E0A0E062
:1027B000B0E080935E0790935F07A0936007B093AB
:1027C0006107C0906C07D0906D07E0906E07F090A5
:1027D0006F0700916A0710916B0760E079E08DE365
:1027E00090E0A701960114D4DA01C9010197A1096B
:1027F000B109B695A795979587959C01D8015096F4
:10280000ED91FC91519782E08083C114B1EEDB061B
:10281000E104F10421F02115E0E13E07B8F0D80110
:102820005096ED91FC915197108260E874E88EE12A
:1028300090E0A7019601ECD3DA01C9010197A10943
:10284000B109B695A795979587959C01D8011C96D7
:10285000ED91FC911D9730831E96ED91FC911F9791
:10286000208358961C9258975496ED91FC91559759
:1028700086E080835296ED91FC9153978081806130
:1028800080835296ED91FC9153978081886080837C
:102890005296ED91FC915397808180688083529687
:1028A000ED91FC91539780818F7D80831092E50B91
:1028B0001092E40B1092E70B1092E60B1092EB0BC8
:1028C0001092EA0B1092E90B1092E80BE0E8FBE0A3
:1028D00080E090E021913191232BB1F4FC01EE0FC7
:1028E000FF1FE058F44F2AE337E0318320838358F9
:1028F0009F4F90933F0780933E0788E697E0909321
:1029000041078093400704C001968931910511F772
:10291000E2EBFBE080E090E021913191232BA9F4E0
:10292000FC01EE0FFF1FEE54F44F2DE237E0318330
:1029300020838C599F4F9093300780932F0701E09D
:1029400065E2462E66E0562E79C0019689319105E2
:1029500019F7F5CF1092040580930305E12CF12CB3
:10296000832C912C822D8E0DE814F9040CF4FAC0FE
:10297000230CF0E82F1608F491C035E2E32E35E081
:10298000F32E5701812F880FF601E80FF11D6181A9
:1029900070E0762F66278081682B94E0660F771FA2
:1029A0009A95E1F724E0759567952A95E1F7072E4A
:1029B000000C880B990B1BD220E030E040E85EE36E
:1029C00051D2F50161937193819391935F011F5FE0
:1029D0001034C1F60FB6F8947EBE0FBE6DBE2091C6
:1029E000660730916707F70181919191A191B191AB
:1029F0007F01F90181939193A193B1939F014E14AB
:102A00005F0489F7809140079091410760913E07EC
:102A100070913F07DC01ED91FC910190F081E02D78
:102A200044E457E0199588E697E00E942C096AE093
:102A300070E080E090E0EEDC0E94460123DDC09073
:102A40002506D0902606E0902706F09028069B01E8
:102A5000AC012C193D094E095F0969017A0138EE74
:102A6000C31633E0D306E104F104E8F260932506CF
:102A70007093260680932706909328066DB67EB63F
:102A80004DB75EB7405851090FB6F8945EBF0FBE00
:102A90004DBF8DB79EB701966C01212C8091290600
:102AA000009360068093820610926106109283065E
:102AB000622D70E060587F4F84E896E00E940B0220
:102AC00081E0B3DB10915F061111FCCF50E8352E89
:102AD000321890E2931510F440E2342E80912906CA
:102AE00000935F0600935E06AFEFA0935D06109221
:102AF0005C069FEF930D90935B0600933A069091CE
:102B00003A06880F892B80933A06809139068130E6
:102B100071F41092390680913A068093BB0080913F
:102B2000BC0083FDF8CFB5ECB093BC0003C0E5EE6C
:102B3000E093BC0080915F068130E1F380915C06F8
:102B4000831518F490915C0601C0932DEBE3F6E039
:102B5000A5E0B5E080E0891709F4FCCE21912D9322
:102B60008F5FF9CF5601A80EB11C84E896E00E9451
:102B7000C301D5018C93BFEFEB1AFB0AF3CE109281
:102B800093061092920688EE93E0A0E0B0E0809366
:102B9000940690939506A0939606B09397062AE420
:102BA00032E030939106209390062DEC30E0309384
:102BB0009D0620939C062CEC30E030939F062093DA
:102BC0009E0628EC30E03093A1062093A00629EC65
:102BD00030E03093A3062093A2062AEC30E0309335
:102BE000A5062093A4062EEC30E03093A706209390
:102BF000A6061092A9061092AA061092AB06109291
:102C0000AC061092870610928606809388069093F1
:102C10008906A0938A06B0938B068CE592E0909388
:102C20008506809384068EE992E0909369078093ED
:102C3000680780E996E090936B0780936A0780E0CD
:102C400092ECA1E0B0E080936C0790936D07A093A5
:102C50006E07B0936F071092EE0B82E992E09093AB
:102C6000FD0B8093FC0B1092FE0B1092FF0B109249
:102C7000000C1092010C1092070C1092060C10928E
:102C8000080C1092090C10920A0C10920B0C109266
:102C9000110C1092100C1092120C1092130C109236
:102CA000140C1092150C1092190C1092180C80E84C
:102CB0009BE0E2EBFBE0DC011D921D92EA17FB07B3
:102CC000D9F724EE3BE0119211922E173F07D9F766
:102CD000A0E8B7E0E0E8F9E01D92EA17FB07E1F7AA
:102CE00011928E179F07E1F710927C0710927D07D3
:102CF00010927E0710927F0786E892E09093450736
:102D0000809344078AE792E09093470780934607B1
:102D1000109248071092490710924A0710924B07E9
:102D20008EE692E090934D0780934C078FE293E0FC
:102D300090934F0780934E071092500710925107BF
:102D40001092520710925307109254071092550791
:102D50001092560710925707109259071092580771
:102D600010925A0710925B0710925C0710925D0751
:102D700010925E0710925F07109260071092610731
:102D8000109267071092660783EA94E090933B07DE
:102D900080933A0784E497E090933D0780933C0743
:102DA000109243071092420788EA92E090932E0710
:102DB00080932D0784EB92E0909334078093330740
:102DC0001092350785E696E0909337078093360793
:102DD00081E090E0909339078093380782EB94E08C
:102DE00090933207809331070895E89409C097FBC8
:102DF0003EF490958095709561957F4F8F4F9F4FD2
:102E00009923A9F0F92F96E9BB279395F695879515
:102E100077956795B795F111F8CFFAF4BB0F11F4D8
:102E200060FF1BC06F5F7F4F8F4F9F4F16C088237F
:102E300011F096E911C0772321F09EE8872F762FB5
:102E400005C0662371F096E8862F70E060E02AF0F6
:102E50009A95660F771F881FDAF7880F96958795E2
:102E600097F908950BD078C069D028F06ED018F08B
:102E7000952309F05AC05FC01124A2C07ED0A0F3F0
:102E8000959FD1F3950F50E0551F629FF001729FFF
:102E9000BB27F00DB11D639FAA27F00DB11DAA1F1E
:102EA000649F6627B00DA11D661F829F2227B00D6B
:102EB000A11D621F739FB00DA11D621F839FA00DF6
:102EC000611D221F749F3327A00D611D231F849F46
:102ED000600D211D822F762F6A2F11249F5750409D
:102EE0008AF0E1F088234AF0EE0FFF1FBB1F661F38
:102EF000771F881F91505040A9F79E3F510570F0F1
:102F000014C05EC05F3FECF3983EDCF38695779586
:102F10006795B795F795E7959F5FC1F7FE2B880FEB
:102F2000911D9695879597F9089597F99F6780E881
:102F300070E060E008959FEF80EC089500240A940B
:102F40001616170618060906089500240A94121684
:102F50001306140605060895092E0394000C11F4B7
:102F6000882352F0BB0F40F4BF2B11F460FF04C064
:102F70006F5F7F4F8F4F9F4F089557FD9058440FBD
:102F8000551F59F05F3F71F04795880F97FB991FC8
:102F900061F09F3F79F08795089512161306140685
:102FA000551FF2CF4695F1DF08C016161706180612
:102FB000991FF1CF86957105610508940895E894ED
:102FC000BB2766277727CB0197F90895DB018F93FD
:102FD0009F9348D0BF91AF91A29F800D911DA39F59
:102FE000900DB29F900D1124089597FB072E16F4B3
:102FF000009406D077FD08D03FD007FC05D03EF402
:10300000909581959F4F0895709561957F4F089594
:10301000A1E21A2EAA1BBB1BFD010DC0AA1FBB1FDC
:10302000EE1FFF1FA217B307E407F50720F0A21B4E
:10303000B30BE40BF50B661F771F881F991F1A94BB
:1030400069F760957095809590959B01AC01BD01E5
:10305000CF010895EE0FFF1F881F8BBF0790F691D9
:10306000E02D19941DD0A59F900DB49F900DA49FA5
:10307000800D911D11240895AA1BBB1B51E107C0AF
:10308000AA1FBB1FA617B70710F0A61BB70B881FF8
:10309000991F5A95A9F780959095BC01CD01089587
:1030A000A29FB001B39FC001A39F700D811D112489
:1030B000911DB29F700D811D1124911D08950F93D4
:1030C0001F93CF93DF938230910510F482E090E05C
:1030D000E091250CF091260C20E030E0A0E0B0E07B
:1030E000309719F1408151810281138148175907A6
:1030F000C8F08417950769F4109731F012960C9375
:10310000129713961C9327C00093250C1093260C3E
:1031100022C02115310519F04217530718F49A01FE
:10312000BD01EF01DF01F801DBCF21153105F9F019
:10313000281B390B2430310580F48A819B8161156D
:10314000710521F0FB019383828304C09093260CC8
:103150008093250CFE01329644C0FE01E20FF31F5E
:103160008193919322503109398328833AC0209169
:10317000230C3091240C232B41F420910202309136
:1031800003023093240C2093230C209100023091F1
:1031900001022115310541F42DB73EB740910402DB
:1031A00050910502241B350BE091230CF091240C67
:1031B000E217F307A0F42E1B3F0B2817390778F00E
:1031C000AC014E5F5F4F2417350748F04E0F5F1F6D
:1031D0005093240C4093230C8193919302C0E0E020
:1031E000F0E0CF01DF91CF911F910F910895CF9320
:1031F000DF93009709F481C0FC0132971382128299
:10320000A091250CB091260C109781F4208131817A
:10321000820F931F2091230C3091240C281739071B
:1032200051F5F093240CE093230C67C0ED0120E0EE
:1032300030E0CE17DF0740F44A815B819E014115E3
:103240005105F1F0EA01F5CFD383C283408151816A
:10325000840F951FC817D90759F488819981840F65
:10326000951F0296918380838A819B8193838283B9
:103270002115310529F4F093260CE093250C3DC06F
:10328000E901FB83EA8349915991C40FD51FEC17DB
:10329000FD0761F480819181840F951F0296E901F9
:1032A00099838883828193819B838A83E0E0F0E025
:1032B00012968D919C911397009719F0FD01DC01F6
:1032C000F7CF8D919C9111979D012E5F3F4F820FFB
:1032D000931F2091230C3091240C2817390769F48F
:1032E000309729F41092260C1092250C02C01382FC
:1032F0001282B093240CA093230CDF91CF910895F8
:103300006F927F928F929F92AF92BF92CF92DF92F5
:10331000EF92FF920F931F93CF93DF93009781F467
:10332000CB01DF91CF911F910F91FF90EF90DF9034
:10333000CF90BF90AF909F908F907F906F90BFCEB7
:10334000FC01E60FF71F9C0122503109E217F30739
:1033500008F4A5C0EC01D9010D911C911197061735
:103360001707A8F00530110508F497C0C8010497A5
:103370008617970708F491C002501109061B170B16
:10338000019311936D937C93CF0131DF86C05B0174
:10339000A01AB10A4C01800E911EA091250CB0918B
:1033A000260C612C712CE12CF12C109709F446C0ED
:1033B0008D919C911197A815B905B1F56C0142E06A
:1033C000C40ED11CCA14DB0478F14C018A189B0886
:1033D000640142E0C40ED11C1296BC901297139661
:1033E000AC91B5E0CB16D10440F0B282A3839182B8
:1033F0008082D9016D937C9309C00E5F1F4F800FAF
:10340000911FF90191838083EB2DFA2FE114F104D0
:1034100031F0D7011396FC93EE9312973EC0F093D0
:10342000260CE093250C39C06816790608F43C0197
:103430007D0112960D90BC91A02DB7CF8091230CE9
:103440009091240C88169906E1F466167706C8F464
:103450008091000290910102009741F48DB79EB7D0
:103460004091040250910502841B950BE817F9075F
:10347000B0F4F093240CE093230CF9017183608382
:103480000CC0CB011CDE7C01009749F0A801BE01F5
:103490001BD0CE01ACDEC70104C0CE0102C080E06B
:1034A00090E0DF91CF911F910F91FF90EF90DF900F
:1034B000CF90BF90AF909F908F907F906F90089526
:1034C00081E090E0F89409C0FB01DC0102C00190AA
:0E34D0000D9241505040D8F70895F894FFCF68
:1034DE000000270C8000726F7373657269616C5FF8
:1034EE006D7367732F526571756573745061726178
:1034FE006D0000000000D80D0A0507050405000048
:10350E000000A60DAF04AC04A904000000004106A3
:10351E00FB05F805F505000000002410BD0FE70FB0
:10352E0070103A01F60F0A10000000000B02DF01C6
:10353E003A02B301D701C301B40100000000920C9E
:10354E000F040C040904000000005E036A065B030E
:10355E00580300000000BD03F2065503520300009D
:10356E000000CD0C7207A604A30400000000550253
:10357E002C093D02000000004C02480245024202A6
:10358E00000000004B03440345024202000000000D
:10359E00181018101810181038623934633162354B
:1035AE003364623631666236616564343036303289
:1035BE003861643633333261007374645F6D7367E0
:1035CE00732F426F6F6C004D657373616765206674
:1035DE00726F6D206465766963652064726F7070BA
:1035EE0065643A206D657373616765206C617267FF
:1035FE006572207468616E206275666665722E0053
:10360E00366134306530666661366131376135302A
:10361E003361633366383631363939316231663665
:10362E00007374645F6D7367732F466C6F617433D0
:10363E00324D756C746941727261790030666564E1
:10364E003261313163313365313163353537316252
:10365E0034653261393935613931613300737464DF
:10366E005F6D7367732F4D756C74694172726179FA
:10367E004C61796F7574003463643063383361382C
:10368E003638336465616534306563646163363042
:10369E0065353362666138007374645F6D7367738A
:1036AE002F4D756C7469417272617944696D656EE6
:1036BE0073696F6E0039663065393862646136350C
:1036CE00393831393836646466353361666137614D
:1036DE0034306534390031316162643733316332ED
:1036EE0035393333323631636436313833626431CF
:1036FE0032643632393500726F7373657269616C7C
:10370E005F6D7367732F4C6F670030616435316680
:10371E003838666334343839326638633130363887
:10372E003430373736343630303500726F73736558
:10373E007269616C5F6D7367732F546F7069634943
:10374E006E666F00636437313636633734633535F2
:10375E003263333131666263633266653561376277
:10376E0063323839007374645F6D7367732F5469F5
:10377E006D6500616D67383878785F706978656C53
:0C378E007300616C61726D5F6C6564001B
:00000001FF
